:020000040800F2
:1000000070060020A1010008272000081D1D00081F
:1000100025200008ED080008552C0008000000000D
:100020000000000000000000000000002B2000087D
:10003000EF08000800000000292000082D2000081B
:10004000BB010008BB010008BB010008BB010008A0
:10005000BB010008BB010008F1080008BB01000853
:10006000BB010008BB010008BB010008BB01000880
:10007000BB010008BB010008BB010008BB01000870
:10008000BB010008BB010008BB010008BB01000860
:10009000BB010008BB010008BB010008BB01000850
:1000A000BB010008BB010008BB010008BB01000840
:1000B000BB010008D5200008BB010008BB010008F7
:1000C000BB010008BB010008BB010008BB01000820
:1000D000BB010008BB010008BB010008BB01000810
:1000E000BB010008BB010008BB010008BB01000800
:1000F000BB010008BB010008BB010008BB010008F0
:10010000BB010008BB010008BB010008BB010008DF
:10011000BB010008BB010008BB010008BB010008CF
:10012000BB010008BB010008BB010008BB010008BF
:10013000BB010008BB010008BB010008BB010008AF
:10014000BB010008BB010008BB010008BB0100089F
:10015000BB010008BB010008BB010008BB0100088F
:10016000BB010008BB010008BB010008BB0100087F
:10017000BB010008BB010008BB0100080000000033
:10018000BB010008BB010008DFF810D000F008FB3D
:10019000004800470D610008AFF3008070060020A2
:1001A0000648804706480047FEE7FEE7FEE7FEE711
:1001B000FEE7FEE7FEE7FEE7FEE7FEE7C5200008F4
:1001C000890100082DE9F05F0546002092469B4614
:1001D00088460646814640241BE02846414647465D
:1001E000224600F046FA53465A46C01A914110D3AF
:1001F00011461846224600F02DFA2D1A67EB010829
:100200004F4622460120002100F024FA17EB000996
:100210004E41201EA4F10104DFDC484631462A4647
:100220004346BDE8F09FD2B201E000F8012B491E21
:10023000FBD270470022F6E710B513460A46044683
:100240001946FFF7F0FF204610BD2DE9FE4F80460E
:1002500081EA0300C00F0C46009021F0004123F01A
:100260000045B8EB0200A94105D240462146904620
:100270001C460B46024623F00040104347D0270D92
:10028000C7F30A00C3F30A510290401A01904028B4
:100290006BDAC3F3130040F4801B0098924620B140
:1002A0000023D2EB030A63EB0B0B01985946C0F114
:1002B0004002504600F0CEF906460D4650465946DB
:1002C000019A00F0E6F910EB08006141002487EA8A
:1002D000115284EAE7731A4340D0009A62B3019A3C
:1002E000012A4FEA075215DC001B61EB02014FF0B7
:1002F000004202EA0752CDE90042001C41F580119C
:1003000032462B4600F0E6F903B0BDE8F08F4046D8
:100310002146F9E7001B61EB0201001C41F5801347
:1003200000185B412018A2F5001747EB030140EAD3
:10033000D570B6196D4111E06D084FEA360645EAF1
:10034000C0754FEA0752001B61EB0201001C41F52A
:10035000801149084FEA30000019514132462B46BE
:1003600003B0BDE8F04F00F0A6B9009801224000AC
:100370000023D0EB020263EBE073009821464FEAC2
:10038000E074B8EB000061EB0401E9E783F000439F
:100390005BE781F0004158E72DE9FE4F81EA030455
:1003A00004F0004421F0004100944FF0000B23F0D2
:1003B000004350EA01045ED052EA03045BD0C3F369
:1003C0000A54C1F30A552C44A4F2F3340194A0FB5F
:1003D0000254C1F3130141F48011C3F3130343F436
:1003E000801301FB024400FB034E840A970A44EA8F
:1003F000815447EA8357A4FB076802958D0A05FBE1
:1004000007854FEA932C04FB0C542705029D4FEA05
:10041000065847EA1637B5EB08056EEB070C870E52
:10042000920E47EA811742EA8312A7FB0201B6EB5C
:100430000B0164EB00042B0D43EA0C335E1844EB14
:100440001C50DA465146E7FB0201C5F313044FEA9C
:100450000B3343EA14534FEA0432019C43EA060388
:10046000A4F10C040294009CCDE900B400F032F930
:1004700003B0BDE8F08F00200146F9E72DE9F04D0B
:1004800081EA030404F0004B21F0004514464FF0CC
:10049000000A23F0004150EA050220D054EA01028C
:1004A0001DD0C5F30A570246C5F31303C1F3130069
:1004B000C1F30A5640F4801543F48013A7EB0608F5
:1004C000101BD64608F2FD3873EB050002D308F185
:1004D000010801E092185B41B8F1000F03DA002037
:1004E0000146BDE8F08D00204FF480110646844699
:1004F0000EE0171B73EB050705D3121B63EB050317
:1005000006434CEA010C49084FEA300092185B415F
:1005100050EA0107EDD152EA030012D082EA04004A
:1005200083EA0501084305D0101BAB4106D2012226
:10053000002306E000224FF0004302E06FF00102CA
:1005400053101AEB06004CEB085110EB0A0041EB7C
:100550000B01BDE8F04D00F0AEB80EB5C10F80EA5A
:10056000E0700844CA07002140F233438DE80E00D2
:100570000A460B4600F0AEF803B000BD0EB540F2DF
:10058000334102910021CDE900110A460B4600F0EB
:10059000A1F803B000BDC1F30A5210B5C1F31301B5
:1005A00040F2FF3341F480119A4201DA002010BD7D
:1005B00040F233439A42A2F2334203DC524200F04B
:1005C00058F810BD904010BD30B5041E71F1000404
:1005D00004DB4FF00044404264EB0101141E73F150
:1005E000000405DB1C464FF00043524263EB04035A
:1005F0008B4208BF824230BD30B5041E71F1000449
:1006000004DB4FF00044404264EB0101141E73F11F
:10061000000405DB1C464FF00043524263EB040329
:10062000994208BF904230BD30B50B4601460020CC
:100630002022012409E021FA02F59D4205D303FAA4
:1006400002F5491B04FA02F52844151EA2F1010225
:10065000F1DC30BD202A04DB203A00FA02F1002050
:1006600070479140C2F1200320FA03F319439040F0
:100670007047202A04DB203A21FA02F0002170475B
:1006800021FA02F3D040C2F12002914008431946FA
:100690007047202A06DBCB17203A41FA02F043EAE2
:1006A000E07306E041FA02F3D040C2F1200291402B
:1006B00008431946704710B5141E73F1000408DA98
:1006C000401C41F1000192185B411A4301D120F016
:1006D000010010BD2DE9F04D92469B4611B1B1FAD3
:1006E00081F202E0B0FA80F220329046FFF7B2FFCA
:1006F00004460F4640EA0A0041EA0B0153465A46B7
:10070000084313D0114653EA010019D0C8F1400242
:100710005046FFF7AEFF05460E4650465946424644
:10072000FFF798FF084305D0012004E02046394632
:10073000BDE8F08D0020054346EAE0762C433743C0
:100740000A986305E40AA0EB08000022FD0A44EAC7
:1007500047540A3002D500200146E9E70105101987
:100760006941DDE9084500196941BDE8F04DA2E79E
:10077000C1F30A52C1F3130140F2FF3341F4801177
:100780009A4202DA00200146704740F233439A420F
:10079000A2F2334202DC5242FFF76BBFFFF75ABFAF
:1007A000064C074D06E0E06840F0010394E80700BE
:1007B00098471034AC42F6D3FFF7EAFCB891000832
:1007C000D8910008464910B54A6822F440324A6080
:1007D0004A6843681A434A6001684A6822F4807292
:1007E0004A6001684A68036942EA03224A60016874
:1007F0004A6822F040724A6001684A6883681A4376
:100800004A6001688A6822F400628A6001688A6826
:10081000C3681A438A60816A6FF07062D1420168CE
:100820008A6822F070628A6001688A680CD0836AE4
:100830001A438A6001688A6822F040528A6001681F
:100840008A68C36A1A4301E022F040528A60016854
:100850008A6822F002028A6001688A68037E42EA9E
:1008600043028A6090F82010002901684A680FD07E
:1008700042F400624A6001684A6822F460424A60B9
:1008800001684A68174C436A04EB43331A4301E09A
:1008900022F400624A600168CA6A22F47002CA62E5
:1008A0000168CA6A838B104C04EB03531A43CA6273
:1008B00001688A6822F400728A6001688A6890F888
:1008C000303042EA43228A6001688A6822F48062FA
:1008D0008A6001688A68406942EA8020886010BDA9
:1008E0000023014000E0FFFF0000F0FFFEE770473B
:1008F000012000F055BB72B6FEE7000030B5B3F53D
:10090000804F05D06FF0704140F82210002030BDBC
:100910008C690B688D6823434C688989240144EAFB
:100920000524234343EA014150F82230014C23407F
:100930001943E9E70000F0CF10B50A6850F82230FB
:1009400023F0010340F822308C68082C23D00023C8
:100950004A682243CC681C430B6922431A434B6903
:100960000E4C1A43CB691A430B6A1A434B6A1A435B
:100970008B6A1A43CB6A1A430B6B1A438B69134376
:10098000CA6B09681A4350F82130A343134340F857
:100990002130002010BD4023DAE700007FFF0F0068
:1009A00030B5D1E9003443EA04138C688D89240200
:1009B00044EA054423430C8A094D00EB820005EB11
:1009C000045423430C7D6D0105EB046489692343C2
:1009D0000B43416801F040410B434360002030BDB0
:1009E0000000F0FF78B50024009490F83C20012A24
:1009F00019D0012280F83C200A6807230568092ADB
:100A000013D9EE680A3A02EB420293409E43EE602D
:100A10000B788A680A3B03EB43039A400368DD685E
:100A20002A43DA6010E0022078BD2E6902EB420210
:100A300093409E432E610B788A6803EB43039A40F0
:100A400003681D692A431A614A681F23072A13D2C3
:100A500005686E6B521E02EB820293409E436E63EA
:100A60000B790A885B1E92B203EB83039A400368FA
:100A70005D6B2A435A6327E005680D2A12D22E6B5C
:100A8000D21F02EB820293409E432E630B790A88A9
:100A9000DB1F92B203EB83039A4003681D6B2A436A
:100AA0001A6311E0EE6A0D3A02EB820293409E4314
:100AB000EE620B790A880D3B92B203EB83039A40F6
:100AC0000368DD6A2A43DA62164B0568144A9D42C0
:100AD00006D10D68122D03D1556845F48005556087
:100AE00005689D4218D10B68102B01D0112B13D132
:100AF000536843F400035360096810290CD10A4974
:100B00000A4A0968B1FBF2F101EB8101490000E0FA
:100B1000491E00910029FBD180F83C40002078BD9F
:100B200000230140002001401800002040420F0037
:100B30000068C06C704770B504004FF0000503D02A
:100B4000206C002610B107E0012070BD204600F0A7
:100B50001DF8666484F83C60206CC00610D4206CDC
:100B600020F4885040F0020020642046FFF72AFE5F
:100B70006664206C20F0020040F00100206400E078
:100B8000012584F83C60284670BD000010B586B091
:100B9000044614216846FFF74DFB1149206888423E
:100BA0001CD110480021026842F480720260006883
:100BB00000F4807005900B481438026842F001027E
:100BC0000260006800F0010005901E2000900320E4
:100BD000CDE901016946044800F0EEF906B010BD08
:100BE0000020014044380240000002402DE9F0415D
:100BF000044600680D4681684FF0000749050BD593
:100C00008068C00508D5206C40F02000206484F87E
:100C10003C700120BDE8F08100F0D8FA064613E0F0
:100C2000681C11D025B100F0D1FA801BA8420BD965
:100C300020680068800707D4206C40F0040020641E
:100C400084F83C700320E5E7206800688007E7D55A
:100C500021686FF012000860206C40F4007020647E
:100C60002068816811F0405F13D1217E89B9C16A83
:100C700011F4700F02D0806840050AD4206C20F473
:100C800080702064206CC00403D4206C40F001000C
:100C900020640020BEE7000018B50021009190F804
:100CA0003C20012A07D0012280F83C20026893688A
:100CB000DB0702D011E0022018BD936843F0010366
:100CC00093602E4A2E4B1268B2FBF3F202EB420203
:100CD00000E0521E0092002AFBD102689368DB07F5
:100CE00042D0036C40F20164A34343F48073036475
:100CF00053685B0505D5036C23F4005343F480531C
:100D00000364036CDB0404D5436C23F006034364E3
:100D100000E0416480F83C101A496FF02203136030
:100D200049680068CA06184906D0884224D18168FB
:100D300011F0405F13D01FE08842F8D0134A904270
:100D400003D1D1F80423D206F1D0114A904213D135
:100D5000D1F8041301F01F011029E8D30CE08168D9
:100D600041F08041816007E0016C41F010010164B5
:100D7000416C41F001014164002018BD18000020C1
:100D800040420F00002301400020014000210140AB
:100D90000022014090F83C1001290CD0012180F87C
:100DA0003C1001688A6822F001028A600168896843
:100DB000C90702D007E002207047016C21F4885176
:100DC00041F001010164002180F83C1008467047A1
:100DD00070B54379012B1CD00126467102230371A3
:100DE00005682B6802F0100440F6FE72A24093439F
:100DF000D1E900210A43A2401A432A6001680A6827
:100E0000C023A3409A430A6006710021417108463D
:100E100070BD022070BD70B5040003D0207900259C
:100E200010B105E0012070BD6571204600F008F8A2
:100E300002202071256101202071002070BD00007A
:100E400010B586B0044614216846FFF7F3F911493E
:100E5000206888421CD110480021026842F00052EC
:100E60000260006800F0005005900B4810380268DE
:100E700042F001020260006800F00100059030209D
:100E800000900320CDE901016946044800F094F880
:100E900006B010BD0074004040380240000002401F
:100EA00070B5044600F092F90546601C02D0044873
:100EB0000078044400F08AF9401BA042FAD370BDC8
:100EC0000C0000202DE9F04186B014216846FFF7A0
:100ED000B1F920480168002939D1012101601E487B
:100EE0000024016841F00101016000684FF480585E
:100EF00000F001000C27CDF80080CDE90470032636
:100F000002250396CDE901546946144800F054F8CF
:100F10004FF68070CDE9000502AA694682E8D0004C
:100F20000F4800F049F84CF23370CDE9000502AAF1
:100F3000694682E8D0000B4800F03EF802AA6946F4
:100F400082E8D000CDE90085074800F035F806B00A
:100F5000BDE8F0810400002038380240001402404F
:100F600000100240000C02400018024010B5012899
:100F70000FD16420FFF794FF0121064800F014F917
:100F8000012806D14102044800F013F90349012069
:100F9000087010BD00000240001402400000002054
:100FA000044910B50A68024202D00860FFF7DEFF6C
:100FB00010BD0000143C01402DE9F84FDFF8BCA142
:100FC0000022012503264FF00F090AF1040BAAF1B4
:100FD000040E00BF0B6805FA02F42340A34270D14F
:100FE0000F7907F00307012F01D0022F16D1876870
:100FF0004FEA420806FA08FC27EA0C07D1F80CC0B1
:101000000CFA08FC4CEA070CC0F808C04768A74374
:101010000C79C4F3001494403C4344600C79E443DD
:10102000A4070AD0C4684FEA420C06FA0CF7BC4386
:101030008F6807FA0CF72743C7600C7904F00304A4
:10104000022C12D1D40800EB840CDCF820405707A6
:10105000FF0E09FA07F824EA0804D1F8108008FA0C
:1010600007F848EA0408CCF8208004684FEA420CEC
:1010700006FA0CF7BC430F7907F0030707FA0CF7E1
:10108000274307604C6814F4403F70D03C4C2768FD
:1010900047F480472760246822F0030704F4804463
:1010A0000094384C07EB040CDCF8084897074FEA2B
:1010B000177809FA08F7BC43334FB84202D100272A
:1010C00024E054E0314FB84201D101271EE0304FF7
:1010D000B84201D1022719E02E4FB84201D10327AF
:1010E00014E02D4FB84201D104270FE02B4FB84236
:1010F00001D105270AE02A4FB84201D1062705E0B1
:10110000284FB84201D1072700E0082707FA08F75F
:101110002743CCF80878DAF800405746D1F804C0E5
:101120009C435FEACC2C00D51C433C60DBF80040BC
:101130005F46D1F804C09C435FEA8C2C00D51C4369
:101140003C60DEF800407746D1F804C09C435FEA7B
:101150008C3C00D51C433C60084F083F3C68D1F8EC
:1011600004C09C435FEACC3C00D51C433C60521C4D
:10117000102AFFF42FAFBDE8F88F0000083C0140B3
:1011800044380240003001400000024000040240A8
:1011900000080240000C024000100240001402400F
:1011A00000180240001C02400069084000D00120E5
:1011B0007047426921EA02030A4043EA0241816121
:1011C00070470AB1816170470904FBE701488068F4
:1011D000704700000C00002002488168027811442A
:1011E000816070470C0000200B4810B5016841F485
:1011F00000710160016841F480610160016841F49F
:1012000080710160032000F06FF8002000F006F804
:1012100000F024F8002010BD003C024070B50D4DD8
:1012200004464FF47A712878B1FBF0F00A49096856
:10123000B1FBF0F000F03AFB48B9102C07D20022C5
:101240002146501E00F030F800206C6070BD012077
:1012500070BD00000C000020180000200A4808B5EE
:10126000016841F480410160006800F48040009012
:101270000548001F016841F080510160006800F0DE
:101280008050009008BD000044380240002809DB6F
:1012900000F01F02012191404009800000F1E02090
:1012A000C0F8001170470000F0B40E4B1B680C46EC
:1012B000C3F30223C3F10705042D00D90425191D2A
:1012C000072901D2002300E0DB1E012606FA05F102
:1012D000491E214099409E40761E16403143F0BC85
:1012E00001F0DEBC0CED00E0064900F007020868E2
:1012F0004FF6FF03184040EA0220034A10430860FB
:10130000704700000CED00E00000FA052DE9F04701
:101310000E46050065D0DFF81481D8F80000F7B25A
:1013200000F00700B04207D288F80070D8F800003B
:1013300000F00700B04254D128683D4C810712D517
:10134000400703D5206840F4E0502060287800076B
:1013500003D5206840F4604020602068A96820F030
:10136000F000084320602878C0072DD03049686815
:101370000839012812D0022813D0032811D0096897
:10138000890700292DDA216821F00301014321603A
:10139000FFF71CFF814641F2883A0EE00968890395
:1013A000EFE709688901ECE7FFF710FFA0EB0901FF
:1013B000514502D90320BDE8F0872068696800F034
:1013C0000C00B0EB810FEFD1D8F80010404601F0CF
:1013D0000701B14207D90770006800F00700B0426A
:1013E00001D00120E7E72878400705D52068E968A3
:1013F00020F4E050084320602878000706D52068D4
:10140000296920F4604040EAC100206000F038F80B
:101410002168084AC1F30311515CC84006490860BD
:1014200006480068FFF7FAFE0020C4E7003C0240CF
:1014300008380240F8610008180000201000002061
:101440000448054900680968044AC1F38221515CD7
:10145000C8407047180000200838024008620008A1
:101460000448054900680968044AC1F34231515CE7
:10147000C840704718000020083802400862000881
:10148000154810B5006810F00C02144813D0411034
:10149000042A0FD0082A0ED10F4C241F226823687B
:1014A00002F03F025B0207D52068C0F38810A0FB62
:1014B000010106E0084610BD2168C1F38811A1FBB7
:1014C00000010023FEF77EFE2168C1F30141491CA3
:1014D0004900B0FBF1F010BD083802400024F400D0
:1014E0002DE9F84F04006ED02078DFF84C93C00748
:1014F000A9F104054AD009F104000168C1F3810192
:10150000012908D00068C0F3810002280AD1D9F867
:101510000000400206D52868800337D5606800289F
:10152000E1D033E06068B0F5803F10D0B0F5A02F77
:10153000286810D020F480302860286820F48020AB
:1015400028606068A8B1FFF741FE06460DE02868F4
:1015500040F48030F4E740F480202860F7E700BFD3
:10156000FFF734FE801B642873D828688003F7D502
:101570000CE0FFF72BFE064605E000BFFFF726FE56
:10158000801B6428F0D828688003F7D42078DFF81F
:10159000AC8280074FF0000A3ED5A748001D0168C5
:1015A00011F00C0F08D00068C0F3810002280BD1A5
:1015B000D9F80000400207D42868800716D5E068F3
:1015C000012800D112E033E1E068B8B10120C8F889
:1015D0000000FFF7FBFD064605E000BFFFF7F6FD44
:1015E000801B0228C0D828688007F7D528682169A1
:1015F00020F0F80040EAC10028600DE0C8F800A023
:10160000FFF7E4FD064604E0FFF7E0FD801B02283B
:101610001FD828688007F7D42078000722D5864F86
:1016200087486169703771B101210160FFF7CEFD14
:10163000064604E0FFF7CAFD801B022809D8386877
:101640008007F7D50EE0C0F800A0FFF7BFFD064603
:1016500005E082E0FFF7BAFD801B02287DD83868DC
:101660008007F7D42078400768D5DFF8CCB1002791
:101670000BF13C0BDBF80000C0000BD4DBF80010D2
:1016800041F08051CBF80010DBF80000012700F09A
:10169000805000906B4E3068C00510D4306840F424
:1016A00080703060FFF792FD009005E0FFF78EFD3F
:1016B0000099401A022850D83068C005F6D55E4E11
:1016C000A0686C3601280FD00528306810D020F0B3
:1016D00001003060306820F004003060A068B8B1CC
:1016E000FFF774FD00900FE0306840F00100F4E770
:1016F00040F004003060F7E7FFF768FD0099411AF9
:1017000041F28830814266D830688007F4D50EE017
:10171000FFF75CFD009007E0FFF758FD0099411AC4
:1017200041F28830814256D830688007F4D42FB116
:10173000DBF8001021F08051CBF80010A069C8B38D
:101740003D49091D0968C1F3810102294AD00228D7
:10175000504607D0C8F8600000E03CE0FFF736FDD7
:1017600004463BE04746C8F86000FFF72FFD0646F9
:1017700005E000BFFFF72AFD801B02282BD8286850
:101780008001F7D4D4E907010843A16A2E4A490829
:1017900002EB0141626A41EA8211084394F82C107D
:1017A00040EA0161C9F8001001203866FFF70EFD1C
:1017B000044606E03EE000BFFFF708FD001B0228DC
:1017C00009D828688001F7D534E000BFFFF7FEFC98
:1017D000001B022802D90320BDE8F88F2868800189
:1017E000F4D427E00128F7D0D9F80000E26900F42A
:1017F000800191421CD1226A00F03F01914217D131
:1018000047F6C071626A0140B1EB821F10D1A26A33
:101810004FF0FF3300F4403103EB5202B1EB024FC3
:1018200006D194F82C1000F07060B0EB016F01D07D
:101830000120D1E70020CFE70438024000004742F2
:10184000800E4742007000400000FFFF70B5154653
:101850000E46040003D094F8490010B107E00120BF
:1018600070BD002084F84800204600F01DF804F107
:1018700008012068FFF760F83146A2682068FFF78A
:101880008FF8D4E901022946236BFFF737F8216866
:10189000A06851F8202042F0010241F820200120E8
:1018A00084F84900002070BDFFF70CBB10B5401E46
:1018B000B0F1807F01D3012010BD4FF0E0246061C2
:1018C0000F21601701F0ECF90020A06107202061D2
:1018D000002010BD7047704770B590F83C20012A79
:1018E00032D0012480F83C40022280F83D20036879
:1018F0005A689D6822F070060A6832435A60134B9A
:1019000002689A4214D0B2F1804F11D0104B9A4223
:101910000ED0104B9A420BD00F4B9A4208D00F4B6F
:101920009A4205D00E4B9A4202D00E4B9A4204D1F5
:10193000496825F080031943916080F83D400021FB
:1019400080F83C10084670BD022070BD00000140C8
:101950000004004000080040000C0040000401406A
:10196000004001400018004010B5040003D094F876
:101970003D0010B107E0012010BD002084F83C00BC
:10198000204600F01FF8022084F83D00211D206849
:1019900000F0A6FB012084F8460084F83E0084F89D
:1019A0003F0084F8400084F8410084F8420084F845
:1019B000430084F8440084F8450084F83D0000208A
:1019C00010BD000008B500680B49884212D10B48D1
:1019D000016841F0020101600068002200F002008D
:1019E000009001211D20FFF75FFCBDE808401D208D
:1019F000FFF74CBC08BD0000000400404038024026
:101A000070B5044690F83C000025012817D0012647
:101A100084F83C60022084F83D002068826822F04F
:101A2000770222F47F4282600868502838D00DDCAB
:101A300020284FD005DC90B3102811D14AE00220B5
:101A400070BD302846D040280AD13BE060282FD016
:101A500070280DD0B0F5805F03D0B0F5005F12D0D4
:101A6000012584F83D60002084F83C00284670BDC4
:101A7000CB68D1E90121206800F096FB20688168DD
:101A800041F0770109E0CB68D1E90121206800F03D
:101A90008BFB2068816841F480418160E1E719E0B7
:101AA000CA684968206800F091FB5021206806E070
:101AB000CA684968206800F09AFB6021206800F03D
:101AC0007DFBCEE7CA684968206800F07FFB4021B3
:101AD0002068F4E7226801461046F0E7704770B5C9
:101AE0000446006801694FF00005C943890715D411
:101AF000C168C943890711D4E91E0161012020771B
:101B0000206880698007204602D0FFF7E7FF04E0E5
:101B100000F098F8204600F096F8257720680169D3
:101B2000C943490717D4C168C943490713D46FF0A3
:101B300004010161022020772068806910F4407F51
:101B4000204602D0FFF7CAFF04E000F07BF82046F1
:101B500000F079F8257720680169C943090716D490
:101B6000C168C943090712D46FF00801016104205C
:101B700020772068C0698007204602D0FFF7AEFFBB
:101B800004E000F05FF8204600F05DF8257720685B
:101B90000169C943C90617D4C168C943C90613D42A
:101BA0006FF010010161082020772068C06910F4EF
:101BB000407F204602D0FFF791FF04E000F042F89A
:101BC000204600F040F8257720680169C943C9071D
:101BD00008D1C168C943C90704D1891E01612046E3
:101BE00000F032F820680169C943090609D4C168C8
:101BF000C943090605D46FF0800101612046FFF753
:101C000069FE20680169C943490609D4C168C9430E
:101C1000490605D46FF040010161204600F015F837
:101C200020680169C94389060BD4C168C943890684
:101C300007D46FF0200101612046BDE87040FFF736
:101C40004ABE70BD704770477047704770B504005A
:101C500004D094F83D00002510B106E0012070BDCD
:101C600084F83C50204600F023F8242084F83D00FE
:101C70002068C16821F40051C160204600F064FF73
:101C80002068016921F4904101612068416921F0D7
:101C90002A0141612068C16841F40051C160256496
:101CA000202084F83D0084F83E00002070BD000034
:101CB00010B586B0044614216846FEF7BBFA1449F5
:101CC0002068884221D113480021026842F01002A6
:101CD0000260006800F0100005900E481438026899
:101CE00042F001020260006800F0010005904FF42C
:101CF000C06000900220CDE901010320039007207D
:101D0000049069460448FFF757F906B010BD00007B
:101D1000001001404438024000000240FEE700008D
:101D20007FB500211F480091019102911C4A039147
:101D3000026001244FF440320461C0E901210176C0
:101D400080F82040184A4462C0E90A210325C56191
:101D5000C16080F830104461FEF7EDFE08B1FEF777
:101D6000CAFD009469460F48CDE90145FEF73AFEE9
:101D700008B1FEF7C0FD02200090019069460948B5
:101D8000FEF730FE08B1FEF7B6FD0095694605483E
:101D90000195FEF727FE002801D0FEF7ACFD7FBDC0
:101DA00000200140340000200100000F1CB5002479
:101DB000104900940E48019408600846FFF72BF87C
:101DC00008B1FEF798FD0094002269460948019485
:101DD000FEF7FEFF08B1FEF78EFD102269460548AA
:101DE000FEF7F6FF002801D0FEF785FD1CBD0000C0
:101DF000007400407C00002010B58EB01C216846A5
:101E0000FEF718FA1C2107A8FEF714FA1A484FF03B
:101E100020411022016019494160062181600021A2
:101E2000C160C0E904128161C16113020162C0E9AD
:101E300009139302C0E90B134163816341640F20CE
:101E40003C230090CDE9010303AC112384E80E008C
:101E500009240691CDE9074009AC082084E80F0069
:101E60000D9107AA69460448FFF7F0FC002801D04D
:101E7000FEF741FD0EB010BD90000020040100A04F
:101E80002DE9F04186B014216846FEF7D3F93948B0
:101E90000024016841F020010160016801F0200187
:101EA0000591016841F080010160016801F0800145
:101EB0000591016841F001010160016801F0010133
:101EC0000591016841F010010160016801F0100105
:101ED0000591016841F002010160016801F0020111
:101EE0000591016841F008010160016801F00801F5
:101EF0000591016841F04001016000681E4F00F04B
:101F0000400040F23F250590012229463846FFF760
:101F100058F9DFF868804FF4004600223146404609
:101F2000FFF74FF91120CDE900500125CDE902540A
:101F300069463846FFF740F84FF48810CDE9005065
:101F40000220029069460E48FFF736F80096CDE968
:101F50000154694640460394FFF72EF80022012100
:101F60000620FFF7A1F90620FFF790F906B0BDE8BB
:101F7000F0810000303802400014024000040240AA
:101F80000000024010B586B0002417480094019468
:101F90000294039404941349059401605321C0E909
:101FA000011442F20F71C0E9031480218161FFF72F
:101FB000DBFC08B1FEF79FFC4FF4805000906946AF
:101FC0000948FFF71DFD08B1FEF795FC049404A92C
:101FD00005480594FFF780FC002801D0FEF78BFC34
:101FE00006B010BD00040040E00000200C4810B511
:101FF0000A4901604FF4E1314160002181600C2207
:10200000C160C0E904128161C161FFF71FFE0028B1
:1020100003D0BDE81040FEF76EBC10BD00100140BB
:1020200028010020FEE7FEE770477047FFF7D4B8AD
:1020300030B593B030216846FEF7FCF814210CA8A7
:10204000FEF7F8F81D480025016841F08051016055
:10205000006800F0805011901948016841F48041F7
:1020600001600068022400F480401190012000907B
:10207000000401908001CDE9064008AA0420A821AF
:1020800082E813000B906846FFF72AFA08B172B68F
:10209000FEE70CA90F2081E831004FF4A0500F900B
:1020A0004FF48050109005210CA8FFF72FF900285D
:1020B00001D072B6FEE713B030BD000040380240D8
:1020C000007000400248016841F4700101607047EF
:1020D00088ED00E00148FFF702BD0000E0000020AD
:1020E000F0B50268254C264D264E274F274B4FF062
:1020F000804CA04209D0604507D0A84205D0B0422C
:1021000003D0B84201D0984204D122F0700E4A6840
:1021100042EA0E02A0421BD0604519D0A84217D057
:10212000B04215D0B84213D0984211D0184DA842F1
:102130000ED0184DA8420BD0174DA84208D0174D0D
:10214000A84205D0164DA84202D0164DA84203D190
:1021500022F44075CA682A434D6922F080022A435E
:1021600002608A68C2620A688262A04201D0984214
:1021700001D10969016301214161F0BD0000014005
:102180000004004000080040000C00400004014032
:102190000040014000440140004801400018004058
:1021A000001C00400020004010B5846842EA032271
:1021B00024F47F440A432243826010BD826822F0E7
:1021C00070020A4342F007018160704710B5036A4C
:1021D000046A24F001040462846924F0F00444EAEF
:1021E000021423F00A020A438461026210BD10B592
:1021F000036A23F0100303628369046A23F47043C3
:1022000043EA023224F0A00343EA01118261016231
:1022100010BD00002DE9F04F2DED068B89B04FF079
:10222000000AC648C0F880A24FF0010BC0F884B283
:10223000C0F888B24FF4FA70FEF732FE00259FED29
:10224000C08B9FEDC19B9FEDC2ABDFF80C832024B8
:102250004FF48C79C148FEF71FFD0A21BF48FEF7F5
:10226000C5FCBE48FEF764FCFEF777F953EC182B6B
:10227000FEF792F853EC192BFEF78EF841EC100B99
:1022800008EBC507464687ED000B53EC1A2BFEF70B
:10229000B3F9B14901F1900102D201F805B001E0B2
:1022A00001F805A097ED000BB04653EC102BACA144
:1022B00003A800F0E1FCC5EB05104001052690FBEA
:1022C000F6F003A9CDE900410A304FF4784780B217
:1022D00020234A460297002103F09CFE6D1C032D2B
:1022E000B8DB9E48FEF756FD9448C0F880B2002146
:1022F000C0F88412C0F888B24FF4FA70FEF7D0FD2F
:10230000DFF854A200250AF1900A9448FEF7C4FCB5
:102310000A219248FEF76AFC9048FEF709FCFEF796
:102320001CF953EC182BFEF737F853EC192BFEF77A
:1023300033F841EC100B08EBC507464687ED060B5A
:1023400053EC1A2BFEF758F904D20AEB050080F87B
:1023500003B003E00AEB05010020C87097ED060BFF
:10236000B04653EC102B7EA103A800F085FCC5EB12
:1023700005104001052690FBF6F003A9CDE90041C8
:102380000A304FF4784780B220234A460297502102
:1023900003F040FE6D1C032DB7DB7048FEF7FAFC1E
:1023A00066480121C0F88012C0F884124FF0000B7B
:1023B000C0F888B24FF4FA70FEF772FD00250DF1F7
:1023C0000C09464654466548FEF766FC0A216348F8
:1023D000FEF70CFC6148FEF7ABFBFEF7BEF853ECD2
:1023E000182BFDF7D9FF53EC192BFDF7D5FF41EC66
:1023F000100B06EBC50753EC1A2B87ED0C0BFEF701
:10240000FBF803D201206119887102E0611981F89B
:1024100006B097ED0C0B52A153EC102B03A800F063
:102420002BFCC5EB05104101052091FBF0F02023AA
:102430004FF47841CDE900390A30029180B24FF46F
:102440008C72A02103F0E6FD6D1C032DBBDB43481D
:10245000FEF7A0FC00252846002200EB40031146B1
:1024600023445F5C012F00D1521C491C0329F8DB77
:10247000032A00D16D1C401C0328EDDB3A49012DD5
:1024800002D0022D35D046E09FED388B002200238C
:1024900002EB4207184607EB040C00BF1CF8008053
:1024A000B8F1010F00D15B1C401C0328F6DB032BA5
:1024B00003D0521C032AEADB2DE0002406EBC706FA
:1024C0004FEA010806EBC40753EC182B97ED000BFD
:1024D00051EC100BFEF790F807D297ED008B98F8AF
:1024E000001088F8004008F80410641C032CE9DB95
:1024F00011E00020002300EB40061A462644B75C9A
:10250000012F00D15B1C521C032AF8DB012B08D0E1
:10251000401C0328EEDB09B0E8B2BDEC068BBDE839
:10252000F08F0020325C012A03D0401C0328F9DB25
:10253000F1E70A7808700A54EDE700000080424293
:102540006666666666660A40000000000000303F6E
:102550009A9999999999A93FD001002034000020B7
:10256000252E3366560000002000002000000000E9
:10257000000000002DED048BDFF8F8930446484678
:102580008EB04278017899F80230FBA000F064FB2D
:102590009FEDFD9B9FEDFE8B05264FF478454FF494
:1025A0008C7B012C02D0022C7DD04FE299F80010D8
:1025B00000248F00F8497A18C2F8804299F8014047
:1025C000012201EB8404C4F8802299F8020001EB97
:1025D0008000C0F880224FF4FA70FEF761FCEF4CE7
:1025E00000274FF02008DA46ED48FEF755FB0A2198
:1025F000EB48FEF7FBFAEA48FEF79AFAFDF7ADFF63
:1026000053EC192BFDF7C8FE53EC182BFDF7C4FE55
:1026100041EC100B04EBC70053EC102B80ED000BCA
:10262000E0A109A800F028FBC7EB0710400190FBD0
:10263000F6F009A9CDF80080CDE901150A3080B285
:10264000202352464FF4C87103F0E4FC7F1C032F93
:10265000CADBD348FEF79EFB99F8000000228300F6
:10266000CD480344C3F8802299F8013000EB83037E
:10267000C3F8802299F80210012200EB8100C0F813
:1026800080224FF4FA70FEF70BFC0027C448FEF7D7
:1026900003FB0A21C248FEF7A9FAC148FEF748FA2F
:1026A000FDF75BFF00E096E053EC192BFDF774FE9D
:1026B00053EC182BFDF770FE41EC100B04EBC70038
:1026C00053EC102B80ED060BB6A109A800F0D4FA4C
:1026D000C7EB0710400190FBF6F009A9CDF8008088
:1026E000CDE901150A3080B2202352464FF4F07133
:1026F00003F090FC7F1C032FC8DBA948FEF74AFBC0
:1027000099F8001000228B00A3490B44C3F88022E3
:1027100099F80170012301EB8707C7F8803299F817
:10272000020001EB8000C0F880224FF4FA70FEF73F
:10273000B7FB00279A48FEF7AFFA0A219848FEF740
:1027400055FA9748FEF7F4F9FDF707FF53EC192BFC
:10275000FDF722FE53EC182BFDF71EFE41EC100B8B
:1027600004EBC70053EC102B80ED0C0B8DA109A8D6
:1027700000F082FAC7EB0710400190FBF6F009A9C0
:10278000CDF80080CDE901150A3080B220235246F1
:102790004FF40C7103F03EFC7F1C032FCADB804812
:1027A000FEF7F8FA99F802004F4604EBC00090EDEE
:1027B0000C0B99F8010053EC102B04EBC00090EDCA
:1027C000061B51EC110BFDF717FF03D2B87879788F
:1027D000B97078703AE199F80000002487006E48DB
:1027E0003A18C2F8804299F80140012200EB8404B3
:1027F000C4F8802299F8021000EB8100C0F8802212
:102800004FF4FA70FEF74CFB0027DFF890A120246C
:10281000D8466348FEF740FA0A216148FEF7E6F918
:102820005F48FEF785F9FDF798FE53EC192BFDF78D
:10283000B3FD53EC182BFDF7AFFD41EC100B0AEB89
:10284000C70053EC102B80ED000B56A109A800F037
:1028500013FAC7EB0710400190FBF6F009A9CDE988
:1028600000410A3080B22023424602954FF4C871DD
:1028700003F0D0FB7F1C032FCBDB4948FEF78AFA1D
:1028800099F800000AEBC00292ED000B394A82ED84
:10289000020B0022830040480344C3F8802299F8C9
:1028A000013000EB8303C3F8802299F80210012263
:1028B00000EB8100C0F880224FF4FA70FEF7F0FAC6
:1028C0000027C2463648FEF7E7F90A213448FEF7EA
:1028D0008DF93348FEF72CF9FDF73FFE53EC192B29
:1028E000FDF75AFD53EC182BFDF756FD41EC100B8C
:1028F0002A4C53EC102B04EBC7002AA180ED060BE9
:1029000009A800F0B9F9C7EB0710400190FBF6F0F9
:102910004FF0200809A9CDF80080CDE901150A3053
:1029200080B2434652464FF4F07103F073FB7F1CB4
:10293000032FC7DB1A48FEF72DFA99F80010002282
:102940008B0015490B44C3F8802299F801700123CC
:1029500001EB8707C7F8803299F8020001EB80008D
:10296000C0F880224FF4FA70FEF79AFA00270C485C
:102970001CE0000020000020256420202564202089
:1029800025640D0A000000006666666666660A40F9
:10299000000000000000303F00804242180200208A
:1029A00034000020252E336656000000FEF774F92F
:1029B0000A215948FEF71AF95748FEF7B9F8FDF70A
:1029C000CCFD53EC192BFDF7E7FC53EC182BFDF76E
:1029D000E3FC41EC100B04EBC70053EC102B80ED33
:1029E0000C0BAFF2400109A800F046F9C7EB071045
:1029F000400190FBF6F009AACDF80080CDE9012551
:102A00000A3080B2202352464FF40C7103F002FBCF
:102A10007F1C032FABDB4048FEF7BCF999F802009E
:102A20004F4604EBC00090ED0C0B99F8010053ECFD
:102A3000102B04EBC00090ED061B51EC110BFDF7C1
:102A4000C3FD03D27878B9787970B87099F802101C
:102A500032484F4600EBC10191ED001B99F8001080
:102A600053EC112B00EBC10090ED000B51EC100B5F
:102A7000FDF78CFC41EC100B294C53EC102B29A0DA
:102A800084ED020B00F0E8F8BB787A78397827A05B
:102A900000F0E2F894ED020B27A153EC102B06A8EE
:102AA00000F0EAF84FF0200806A9CDF80080CDE943
:102AB000011543464FF48C724FF420710A2003F045
:102AC000A9FA204A0DF10C0B002407CA8BE8070075
:102AD000B146C2460025C4EB04104FF478484601C5
:102AE000785DA04210D196FBF9F05BF82520CDF877
:102AF00000A0CDE901280A3080B220234FF48C7267
:102B00004FF4347103F086FA6D1C032DE8DB641C6E
:102B1000032CDFDBFEE70000340000201802002059
:102B20002000002025660D0A0000000025642020FA
:102B300025640925640D0A005562653A252E346620
:102B4000560000009091000870B5044600680169C5
:102B5000E26821F44051114301612169A068E269F2
:102B600008436169114308432168CA6849F20C634C
:102B70009A430243CA6020684169A26921F4407106
:102B80001143416131492068884202D0304988426E
:102B900002D1FEF765FC01E0FEF752FCE26900237A
:102BA000192164253226B2F5004F626828D0A0FBB7
:102BB0000101930F9200FDF705FB0146B0FBF5F014
:102BC0006FF01802504301EB800006EB0010B0FBE1
:102BD000F5F000F0F002B1FBF5F002EB0012B1FBF2
:102BE000F5F06FF01803584301EB800006EB00107E
:102BF000B0FBF5F000F00F0021681044886070BD54
:102C0000A0FB010192185B41FDF7DCFA0146B0FB25
:102C1000F5F00201B1FBF5F06FF01803584301EB3A
:102C2000800006EBC000B0FBF5F000F0F80002EB0E
:102C30004002B1FBF5F0584301EB800006EBC00009
:102C4000B0FBF5F000F00700D6E7000000100140EF
:102C500000140140FEE700000FB4054B10B503A9B6
:102C6000044A029800F0FEF810BC5DF814FB000066
:102C700089350008300000200FB4084B10B504A9B6
:102C800002AA039800F0EEF8044602A9002000F022
:102C90006CFC204610BC5DF814FB00006B3500088E
:102CA0000907090E002804DB00F1E02080F8001479
:102CB000704700F00F0000F1E02080F8141D70470D
:102CC00002E008C8121F08C1002AFAD170477047F5
:102CD000002001E001C1121F002AFBD17047000053
:102CE0002DE9FF5F82B00021DDE90430020DDDF83F
:102CF00040B0034318D044F61050A2F2FF324243D2
:102D00001514119801281FD0A5EB0B00401C5FEA99
:102D1000000A4FF000064E4FDFF83891B04650469B
:102D200015D5CAF1000413E0119801244AA3012823
:102D300001D16FEA0B010298119AC0E90031C0E994
:102D4000024206B0BDE8F09FCBF10000DFE7044689
:102D50000021404A491842EB0450CDE9001012E02E
:102D6000E00707D032463B4640464946FDF714FB94
:102D70008046894632463B4610461946FDF70CFB15
:102D800006460F466410002CEAD1DDE90401DDE9B6
:102D90000023BAF1000F06DAFDF7FEFA42464B4671
:102DA000FDF7FAFA05E0FDF769FB42464B46FDF7F1
:102DB00065FB04460E460022284BFDF71DFC03D898
:102DC0004FF0FF30014607E00022254B20463146F8
:102DD000FDF73BFAFDF7CCFC102409E0002C0ADBE0
:102DE0000A220023FDF7EEF9039B30321A55641EC8
:102DF00050EA0102F2D1641C039AC4F11103144495
:102E0000119A012A03D0012208430DD10AE0084398
:102E100004D000204FF0110B119072E7A3EB0B05CB
:102E20006D1E0DE05B4504DD4FF0000205F101056C
:102E300004E003DA4FF00002A5F10105002AECD00E
:102E400002981199C0E90231C0E9004579E7000014
:102E5000000014400000F03F300000000000F0438C
:102E60000000E03F2DE9FF4F95B09A4688460646A0
:102E70000025EEE1252877D100242746F94A0121D3
:102E8000039400E0044316F8013F203B01FA03F0ED
:102E90001042F7D130782A2811D06FF02F03307804
:102EA000A0F13002092A16D8039A44F0020402EB7A
:102EB000820203EB42021044761C0390EFE758F8BD
:102EC000042B0392002A03DA504244F40054039086
:102ED00044F00204761C30782E2816D116F8010F23
:102EE00044F004042A280DD06FF02F023078A0F1AE
:102EF0003003092B09D807EB870302EB4303C718FC
:102F0000761CF3E758F8047B761C30786C280FD0D9
:102F100006DC4C2817D068280DD06A2814D104E0AC
:102F2000742810D07A280FD10DE044F400140AE080
:102F300044F4801401E044F440147278824202D1D7
:102F400004F58014761C761C307866280BD013DCD0
:102F5000582877D009DC002875D04528F6D04628B7
:102F6000F4D047281AD193E118E0632835D06428BB
:102F700079D0652812D18BE1702873D008DC6728DE
:102F8000F1D069286FD06E280DD06F2806D1ACE043
:102F900073282CD0752874D0782853D052461799AE
:102FA00090476D1C54E1C4F30250022809D0032855
:102FB0000DD0D8F8001004280DD00D6008F10408D9
:102FC00046E1D8F80010EA17C1E90052F6E7D8F850
:102FD00000100D80F2E70D70F0E718F8041B8DF873
:102FE000001000208DF80100EB46012003E058F8A6
:102FF00004BB4FF0FF3061074FF0000102D40DE039
:1030000009F101018946B9420FDA8145F8DB1BF865
:1030100009100029F4D108E009F101018946814233
:10302000FADB1BF809100029F6D103985346A0EBF0
:10303000090721463846179A00F080FA284400EB29
:10304000090507E044E008E10DE01BF8010B5246DA
:1030500017999047B9F10109F7D2534621463846EE
:10306000179AF2E039E00A21C4F302524FF0000B44
:103070000091022A06D058F8040BC117032A09D080
:103080000AE023E008F1070020F00702F2E802015D
:10309000904605E000B2C117042A01D140B2C11721
:1030A000002906DA0A460021404261EB02012D2286
:1030B00002E0220504D52B228DF80420012203E032
:1030C000E20701D02022F7E7914657E00A2100E00D
:1030D00010214FF0000B00910BE010214FF0000B7E
:1030E00044F004040827009103E008204FF0000B8F
:1030F0000090C4F30252022A05D058F8040B0021B4
:10310000032A08D008E008F1070020F00702F2E8DF
:103110000201904603E080B2042A00D1C0B24FF011
:10312000000922072AD53278702A07D0DDF800C0BE
:103130008CF0100C5CEA0B0C05D00EE040228DF8F0
:103140000420012208E050EA010306D030238DF864
:1031500004308DF8052002229146009B83F008037D
:1031600053EA0B030AD150EA010201D1620705D5E7
:1031700030228DF804204FF001097F1E3278582A42
:1031800004D039A20C920CAA02920BE03BA2F9E700
:103190005B46009AFDF716F80C9B9B5C029A521E48
:1031A0000292137050EA0102F2D1029804A9081A9F
:1031B00000F1200B600702D524F4803400E00127E1
:1031C0005F4502DDA7EB0B0000E0002000EB0B01E8
:1031D000009003984944401A0390E00306D45346F4
:1031E0002146179A039800F0A9F90544002706E044
:1031F00001A85246C05D179990476D1C7F1C4F4532
:10320000F6DBE0030CD553462146179A039800F0ED
:1032100095F9054404E030205246179990476D1CFB
:103220000099481E00900029F5DC08E002980299F8
:1032300052460078491C0291179990476D1CBBF1CA
:103240000001ABF1010BF1DC5BE100F065F9054435
:10325000761C307800287FF40DAE19B02846BDE802
:10326000F08F000009280100303132333435363711
:1032700038396162636465660000000030313233C2
:103280003435363738394142434445460000000062
:10329000600700D4062708F1070020F00700F0E8D7
:1032A0000223804603F0004C5FEA0C0001D097A097
:1032B00009E0200501D596A005E0E00701D095A022
:1032C00001E0AFF24C001390307823F00043652802
:1032D0000CD006DC452809D046281DD047287FD1D0
:1032E0003BE0662818D067287AD136E00021112FFC
:1032F00001DB112000E0781CCDE9000104A90CA835
:10330000FFF7EEFCDDE90D010C9A4FF0000B07F121
:103310000109109200914EE04FF000400097CDE976
:10332000011004A90CA8FFF7DBFCDDE90D020C9BE2
:103330000F994FF0000B91461093009211B9791C30
:1033400000EB0109B7EB090003D4C0F1FF3B07F123
:103350000109A9EB0700019042E0012F00DA0127E3
:103360000021112F01DD112000E03846CDE90001D8
:1033700004A90CA8FFF7B4FCDDE90D010C9A00913B
:103380004FF0000BB946109221070FD4009A4A451E
:1033900003DA914601E0A9F10109B9F1010F05DD58
:1033A000109AA9F10101515C3029F4D0B84202DA37
:1033B00010F1040F03DA0121CDE9011010E000281B
:1033C00003DC8344A9EB000102E0411C494500DD18
:1033D0008946A0EB0B00401C01904FF0004002908A
:1033E000200705D40198484502DB4FF0FF300190DB
:1033F00000208DF84B0002980DF14B07B0F1004F03
:1034000025D002200C902B200D90029800280CDA79
:10341000404202902D200D9007E00A210298FDF70E
:1034200003F93031029007F8011D0C99481E0C90E9
:103430000029F2DC02980028EFD1791E0D9808705F
:10344000307800F0200040F0450007F8020D11A888
:10345000C01BC01D02901398007800B1012000EB42
:103460000901019801EBE071029801440398401AA8
:10347000401E0390E00306D453462146179A039852
:1034800000F05CF805441398007818B1524617997B
:1034900090476D1CE00323D553462146179A0398A5
:1034A00000F04CF805441BE0BBF1000F07DB00986F
:1034B000584504DD1098179910F80B0001E0179992
:1034C00030205246904701980BF1010B401E05F148
:1034D0000105019004D12E205246179990476D1C8A
:1034E000B9F10001A9F10109DEDC05E017F8010BD3
:1034F0005246179990476D1C0299481E0290002968
:10350000F4DC53462146179A03989EE62D000000EE
:103510002B000000200000002DE9F04104460025AA
:103520001E461746880404D405E039462020B047DB
:103530006D1C641EF9D52846BDE8F0812DE9F041E7
:10354000044600251E469046C80301D5302700E0FA
:103550002027880404D505E041463846B0476D1C55
:10356000641EF9D52846BDE8F0810A68531C0B603B
:1035700010707047FDF794BC002101E000BF491CAA
:103580008142FBD37047000003490A685206FCD50C
:10359000C2B24A60704700000010014070B50A498D
:1035A0000646002408884D8821464543204602F0FF
:1035B00049FC02F09BFD4FF0D84002E0A0F880608B
:1035C000641CAC42FAD370BDBC0100202DE9F04F61
:1035D0002B492C260A46887192884FF4305A4FF4B2
:1035E000285B4FF4487541F6631E2B274FF02A0CD9
:1035F0004FF0F00845F210594FF4A0744FF4F073F7
:10360000B8B10C80A1F802804A4532D1A1F808A0D7
:10361000A1F80AB0380288810D804B80A2F5A6403F
:10362000103801D10B804C80BDE8F04F002002F033
:103630004BBBA1F800804C804A4507D1A1F808A0F7
:10364000A1F80AB04FF42C50888105E072450E8134
:1036500005D14F81A1F80CC00B804D8002E0A1F88C
:103660000AC08F81A2F5A6401038DDD10C804B80B6
:10367000DAE70E81A1F80AC072458F81CCD0CDE780
:10368000BC01002010B5144602F0DCFB02F02EFD58
:103690004FF0D840A0F8804010BD10B5CF2002F008
:1036A00019FD002002F00AFDC12002F007FD3020C4
:1036B00002F004FDED2002F00DFD642002F0FEFC9E
:1036C000032002F0FBFC122002F0F8FC812002F043
:1036D000F5FCE82002F0FEFC852002F0EFFC102053
:1036E00002F0ECFC7A2002F0E9FCCB2002F0F2FCC4
:1036F000392002F0E3FC2C2002F0E0FC002002F074
:10370000DDFC342002F0DAFC022002F0D7FCF720C6
:1037100002F0E0FC202002F0D1FCEA2002F0DAFC0A
:10372000002002F0CBFC002002F0C8FCC02002F018
:10373000D1FC1B2002F0C2FCC12002F0CBFC012016
:1037400002F0BCFCC52002F0C5FC302002F0B6FC43
:10375000302002F0B3FCC72002F0BCFCB72002F01E
:10376000ADFC362002F0B6FC482002F0A7FC3A205F
:1037700002F0B0FC552002F0A1FCB12002F0AAFC3E
:10378000002002F09BFC1A2002F098FCB62002F008
:10379000A1FC0A2002F092FCA22002F08FFCF22091
:1037A00002F098FC002002F089FC262002F092FC36
:1037B000012002F083FCE02002F08CFC0F2002F0DC
:1037C0007DFC2A2002F07AFC282002F077FC0820F9
:1037D00002F074FC0E2002F071FC082002F06EFC76
:1037E000542002F06BFCA92002F068FC432002F098
:1037F00065FC0A2002F062FC0F2002F05FFC002052
:1038000002F05CFC002002F059FC002002F056FCA3
:10381000002002F053FCE12002F05CFC002002F0EA
:103820004DFC152002F04AFC172002F047FC07204F
:1038300002F044FC112002F041FC062002F03EFCA4
:103840002B2002F03BFC562002F038FC3C2002F01A
:1038500035FC052002F032FC102002F02FFC0F2076
:1038600002F02CFC3F2002F029FC3F2002F026FC55
:103870000F2002F023FC2B2002F02CFC002002F091
:103880001DFC002002F01AFC012002F017FC3F2072
:1038900002F014FC2A2002F01DFC002002F00EFCB5
:1038A000002002F00BFC002002F008FCEF2002F0E8
:1038B00005FC112002F00EFC7820FFF75BFEBDE84E
:1038C0001040292002F006BC10B5ED2002F002FCE9
:1038D000012002F0F3FBFE2002F0F0FBEE2002F0EC
:1038E000F9FBDE2002F0EAFB212002F0E7FBF120E9
:1038F00002F0F0FB012002F0E1FBDF2002F0EAFB26
:10390000102002F0DBFBC42002F0E4FB8F2002F069
:10391000D5FBC62002F0DEFB002002F0CFFBE22048
:1039200002F0CCFBE22002F0C9FBE22002F0C6FB71
:10393000BF2002F0CFFBAA2002F0C0FBB02002F0B3
:10394000C9FB0D2002F0BAFB002002F0B7FB0D20EE
:1039500002F0B4FB002002F0B1FB112002F0AEFB3C
:10396000002002F0ABFB192002F0A8FB002002F0BF
:10397000A5FB212002F0A2FB002002F09FFB2D20DE
:1039800002F09CFB002002F099FB3D2002F096FB28
:10399000002002F093FB5D2002F090FB002002F07B
:1039A0008DFB5D2002F08AFB002002F087FBB12036
:1039B00002F090FB802002F081FB002002F07EFBF1
:1039C0008B2002F07BFB002002F078FB962002F0B7
:1039D00075FB002002F072FBB22002F07BFB00209E
:1039E00002F06CFB002002F069FB022002F066FB93
:1039F000002002F063FB032002F060FB002002F0D5
:103A00005DFBB32002F066FB002002F057FB0020B4
:103A100002F054FB002002F051FB002002F04EFBAC
:103A2000002002F04BFB002002F048FB002002F0D7
:103A300045FB002002F042FB002002F03FFB00208B
:103A400002F03CFB002002F039FB002002F036FBC4
:103A5000002002F033FB002002F030FB002002F0D7
:103A60002DFB002002F02AFB002002F027FB0020A3
:103A700002F024FB002002F021FB002002F01EFBDC
:103A8000002002F01BFB002002F018FB002002F0D7
:103A900015FB002002F012FBB42002F01BFB8B2070
:103AA00002F00CFB002002F009FB962002F006FB5E
:103AB000002002F003FBA12002F000FB002002F036
:103AC000FDFAB52002F006FB022002F0F7FA002012
:103AD00002F0F4FA032002F0F1FA002002F0EEFA0C
:103AE000042002F0EBFA002002F0E8FAB62002F01F
:103AF000F1FA002002F0E2FA002002F0DFFAB7202B
:103B000002F0E8FA002002F0D9FA002002F0D6FA1A
:103B10003F2002F0D3FA002002F0D0FA5E2002F03B
:103B2000CDFA002002F0CAFA642002F0C7FA0020A1
:103B300002F0C4FA8C2002F0C1FA002002F0BEFAB2
:103B4000AC2002F0BBFA002002F0B8FADC2002F050
:103B5000B5FA002002F0B2FA702002F0AFFA0020AD
:103B600002F0ACFA902002F0A9FA002002F0A6FAC6
:103B7000EB2002F0A3FA002002F0A0FADC2002F011
:103B80009DFA002002F09AFAB82002F0A3FA002071
:103B900002F094FA002002F091FA002002F08EFA6E
:103BA000002002F08BFA002002F088FA002002F0D8
:103BB00085FA002002F082FA002002F07FFABA2093
:103BC00002F088FA242002F079FA002002F076FA56
:103BD000002002F073FA002002F070FAC12002F017
:103BE00079FA202002F06AFA002002F067FA5420E5
:103BF00002F064FA002002F061FAFF2002F05EFA9F
:103C0000002002F05BFAC22002F064FA0A2002F0FF
:103C100055FA002002F052FA042002F04FFA002078
:103C200002F04CFAC32002F055FA3C2002F046FAAA
:103C3000002002F043FA3A2002F040FA002002F09D
:103C40003DFA392002F03AFA002002F037FA372024
:103C500002F034FA002002F031FA3C2002F02EFA91
:103C6000002002F02BFA362002F028FA002002F0A1
:103C700025FA322002F022FA002002F01FFA2F204B
:103C800002F01CFA002002F019FA2C2002F016FAB9
:103C9000002002F013FA292002F010FA002002F0AE
:103CA0000DFA262002F00AFA002002F007FA24207A
:103CB00002F004FA002002F001FA242002F0FEF9DA
:103CC000002002F0FBF9232002F0F8F9002002F0B6
:103CD000F5F93C2002F0F2F9002002F0EFF936206D
:103CE00002F0ECF9002002F0E9F9322002F0E6F9E6
:103CF000002002F0E3F92F2002F0E0F9002002F0AA
:103D0000DDF92C2002F0DAF9002002F0D7F92920A1
:103D100002F0D4F9002002F0D1F9262002F0CEF909
:103D2000002002F0CBF9242002F0C8F9002002F0B4
:103D3000C5F9242002F0C2F9002002F0BFF92320C7
:103D400002F0BCF9002002F0B9F9C42002F0C2F977
:103D5000622002F0B3F9002002F0B0F9052002F071
:103D6000ADF9002002F0AAF9842002F0A7F90020A2
:103D700002F0A4F9F02002F0A1F9002002F09EF96F
:103D8000182002F09BF9002002F098F9A42002F01C
:103D900095F9002002F092F9182002F08FF9002026
:103DA00002F08CF9502002F089F9002002F086F927
:103DB0000C2002F083F9002002F080F9172002F0B5
:103DC0007DF9002002F07AF9952002F077F90020C1
:103DD00002F074F9F32002F071F9002002F06EF99C
:103DE000E62002F06BF9002002F068F9C52002F02D
:103DF00071F9322002F062F9002002F05FF94420EC
:103E000002F05CF9002002F059F9652002F056F941
:103E1000002002F053F9762002F050F9002002F061
:103E20004DF9882002F04AF9002002F047F9C62037
:103E300002F050F9202002F041F9002002F03EF992
:103E4000172002F03BF9002002F038F9012002F0BF
:103E500035F9002002F032F9C72002F03BF90020CA
:103E600002F02CF9002002F029F9002002F026F9D6
:103E7000002002F023F9C82002F02CF9002002F003
:103E80001DF9002002F01AF9002002F017F90020B5
:103E900002F014F9C92002F01DF9002002F00EF919
:103EA000002002F00BF9002002F008F9002002F0D7
:103EB00005F9002002F002F9002002F0FFF80020CE
:103EC00002F0FCF8002002F0F9F8002002F0F6F809
:103ED000002002F0F3F8002002F0F0F8002002F0D9
:103EE000EDF8002002F0EAF8002002F0E7F80020E8
:103EF00002F0E4F8002002F0E1F8E02002F0EAF835
:103F0000162002F0DBF8002002F0D8F81C2002F0A6
:103F1000D5F8002002F0D2F8212002F0CFF80020DE
:103F200002F0CCF8362002F0C9F8002002F0C6F802
:103F3000462002F0C3F8002002F0C0F8522002F040
:103F4000BDF8002002F0BAF8642002F0B7F80020B3
:103F500002F0B4F87A2002F0B1F8002002F0AEF8D6
:103F60008B2002F0ABF8002002F0A8F8992002F0B4
:103F7000A5F8002002F0A2F8A82002F09FF8002087
:103F800002F09CF8B92002F099F8002002F096F8AF
:103F9000C42002F093F8002002F090F8CA2002F04A
:103FA0008DF8002002F08AF8D22002F087F8002075
:103FB00002F084F8D92002F081F8002002F07EF8A7
:103FC000E02002F07BF8002002F078F8F32002F005
:103FD00075F8002002F072F8E12002F07BF816205C
:103FE00002F06CF8002002F069F81C2002F066F87C
:103FF000002002F063F8222002F060F8002002F0B6
:104000005DF8362002F05AF8002002F057F84520FB
:1040100002F054F8002002F051F8522002F04EF85D
:10402000002002F04BF8642002F048F8002002F073
:1040300045F87A2002F042F8002002F03FF88B2089
:1040400002F03CF8002002F039F8992002F036F82E
:10405000002002F033F8A82002F030F8002002F02F
:104060002DF8B92002F02AF8002002F027F8C42029
:1040700002F024F8002002F021F8CA2002F01EF815
:10408000002002F01BF8D22002F018F8002002F005
:1040900015F8D82002F012F8002002F00FF8E02006
:1040A00002F00CF8002002F009F8F32002F006F804
:1040B000002002F003F8E22002F00CF8052001F0E5
:1040C000FDFF002001F0FAFF0B2001F0F7FF0020B8
:1040D00001F0F4FF1B2001F0F1FF002001F0EEFFE2
:1040E000342001F0EBFF002001F0E8FF442001F054
:1040F000E5FF002001F0E2FF4F2001F0DFFF00208C
:1041000001F0DCFF612001F0D9FF002001F0D6FFB3
:10411000792001F0D3FF002001F0D0FF882001F0CA
:10412000CDFF002001F0CAFF972001F0C7FF00205B
:1041300001F0C4FFA62001F0C1FF002001F0BEFF86
:10414000B72001F0BBFF002001F0B8FFC22001F052
:10415000B5FF002001F0B2FFC72001F0AFFF002043
:1041600001F0ACFFD12001F0A9FF002001F0A6FF73
:10417000D62001F0A3FF002001F0A0FFDD2001F018
:104180009DFF002001F09AFFF32001F097FF00202F
:1041900001F094FFE32001F09DFF052001F08EFF68
:1041A000002001F08BFF0A2001F088FF002001F0C1
:1041B00085FF1C2001F082FF002001F07FFF3320EB
:1041C00001F07CFF002001F079FF442001F076FF30
:1041D000002001F073FF502001F070FF002001F07B
:1041E0006DFF622001F06AFF002001F067FF782078
:1041F00001F064FF002001F061FF882001F05EFF04
:10420000002001F05BFF972001F058FF002001F033
:1042100055FFA62001F052FF002001F04FFFB7200C
:1042200001F04CFF002001F049FFC22001F046FFE1
:10423000002001F043FFC72001F040FF002001F003
:104240003DFFD12001F03AFF002001F037FFD520DB
:1042500001F034FF002001F031FFDD2001F02EFFDE
:10426000002001F02BFFF32001F028FF002001F0D7
:1042700025FFE42001F02EFF012001F01FFF0020A8
:1042800001F01CFF012001F019FF002001F016FFD2
:10429000022001F013FF002001F010FF2A2001F09E
:1042A0000DFF002001F00AFF3C2001F007FF002075
:1042B00001F004FF4B2001F001FF002001F0FEFEA1
:1042C0005D2001F0FBFE002001F0F8FE742001F0FB
:1042D000F5FE002001F0F2FE842001F0EFFE002048
:1042E00001F0ECFE932001F0E9FE002001F0E6FE73
:1042F000A22001F0E3FE002001F0E0FEB32001F077
:10430000DDFE002001F0DAFEBE2001F0D7FE002025
:1043100001F0D4FEC42001F0D1FE002001F0CEFE59
:10432000CD2001F0CBFE002001F0C8FED32001F02B
:10433000C5FE002001F0C2FEDD2001F0BFFE00201E
:1043400001F0BCFEF32001F0B9FE002001F0B6FE42
:10435000E52001F0BFFE002001F0B0FE002001F0DA
:10436000ADFE002001F0AAFE002001F0A7FE022011
:1043700001F0A4FE002001F0A1FE292001F09EFE24
:10438000002001F09BFE3C2001F098FE002001F08F
:1043900095FE4B2001F092FE002001F08FFE5D2083
:1043A00001F08CFE002001F089FE742001F086FEF1
:1043B000002001F083FE842001F080FE002001F047
:1043C0007DFE932001F07AFE002001F077FEA2200E
:1043D00001F074FE002001F071FEB32001F06EFECA
:1043E000002001F06BFEBE2001F068FE002001F00D
:1043F00065FEC42001F062FE002001F05FFECD20CA
:1044000001F05CFE002001F059FED32001F056FEC1
:10441000002001F053FEDC2001F050FE002001F0EE
:104420004DFEF32001F04AFE002001F047FEE62099
:1044300001F050FE112001F041FE002001F03EFE8F
:10444000342001F03BFE002001F038FE562001F040
:1044500035FE002001F032FE762001F02FFE002014
:1044600001F02CFE772001F029FE002001F026FE4D
:10447000662001F023FE002001F020FE882001F0DC
:104480001DFE002001F01AFE992001F017FE002009
:1044900001F014FEBB2001F011FE002001F00EFE21
:1044A000992001F00BFE002001F008FE662001F0CB
:1044B00005FE002001F002FE552001F0FFFD002066
:1044C00001F0FCFD552001F0F9FD002001F0F6FDA2
:1044D000452001F0F3FD002001F0F0FD432001F044
:1044E000EDFD002001F0EAFD442001F0E7FD002091
:1044F00001F0E4FDE72001F0EDFD322001F0DEFDEA
:10450000002001F0DBFD552001F0D8FD002001F076
:10451000D5FD762001F0D2FD002001F0CFFD662010
:1045200001F0CCFD002001F0C9FD672001F0C6FDBF
:10453000002001F0C3FD672001F0C0FD002001F064
:10454000BDFD872001F0BAFD002001F0B7FD9920E4
:1045500001F0B4FD002001F0B1FDBB2001F0AEFD83
:10456000002001F0ABFD992001F0A8FD002001F032
:10457000A5FD772001F0A2FD002001F09FFD442061
:1045800001F09CFD002001F099FD562001F096FD00
:10459000002001F093FD232001F090FD002001F0A8
:1045A0008DFD332001F08AFD002001F087FD4520BC
:1045B00001F084FD002001F081FDE82001F08AFD7A
:1045C000002001F07BFD002001F078FD992001F032
:1045D00075FD002001F072FD872001F06FFD0020C5
:1045E00001F06CFD882001F069FD002001F066FDFE
:1045F000772001F063FD002001F060FD662001F0EE
:104600005DFD002001F05AFD882001F057FD0020DB
:1046100001F054FDAA2001F051FD002001F04EFDF3
:10462000BB2001F04BFD002001F048FD992001F076
:1046300045FD002001F042FD662001F03FFD002015
:1046400001F03CFD552001F039FD002001F036FD60
:10465000552001F033FD002001F030FD442001F031
:104660002DFD002001F02AFD442001F027FD00204F
:1046700001F024FD552001F021FD002001F01EFD78
:10468000E92001F027FDAA2001F018FD002001F02B
:1046900015FD002001F012FD002001F00FFD0020AB
:1046A00001F018FDAA2001F009FDCF2001F012FD54
:1046B000002001F003FD002001F000FD002001F0CA
:1046C000FDFC002001F0FAFC002001F0F7FC0020C6
:1046D00001F0F4FC002001F0F1FC002001F0EEFC00
:1046E000002001F0EBFC002001F0E8FC002001F0CC
:1046F000E5FC002001F0E2FC002001F0DFFC0020DE
:1047000001F0DCFC002001F0D9FC002001F0D6FC17
:10471000002001F0D3FCF02001F0DCFC002001F0CF
:10472000CDFC502001F0CAFC002001F0C7FC0020A5
:1047300001F0C4FC002001F0C1FCF32001F0CAFC30
:10474000002001F0BBFCF92001F0C4FC062001F0C0
:10475000B5FC102001F0B2FC292001F0AFFC0020D4
:1047600001F0ACFC3A2001F0B5FC552001F0A6FCAC
:10477000112001F0AFFC6420FEF7FCFE292001F0BF
:10478000A9FC352001F0A6FC002001F097FC512087
:1047900001F0A0FCFF2001F091FC532001F09AFCF5
:1047A0002C2001F08BFC552001F094FC822001F0BC
:1047B00085FCBDE810402C2001F08CBC2DE9F05F99
:1047C0004FF470435521184601F09AFC4FF2010452
:1047D000AA21204601F094FC651C5221284601F0D4
:1047E0008FFCA61C0821304601F08AFCE71C012141
:1047F000384601F085FC0D214FF4304001F080FC7B
:104800000D214BF2010001F07BFC0D214BF2020067
:1048100001F076FC4FF436483421404601F070FC3C
:1048200034214BF2016001F06BFC34214BF2026049
:1048300001F066FC4FF431490D21484601F060FC5F
:104840004BF2011A0D21504601F05AFC0D214BF29A
:10485000021001F055FC4FF4374B3421584601F05B
:104860004FFC34214BF2017001F04AFC34214BF231
:10487000027001F045FC00214FF4324001F040FC91
:1048800000214BF2012001F03BFC00214BF2022001
:1048900001F036FC24214FF4384001F031FC242192
:1048A0004BF6010001F02CFC24214BF6020001F034
:1048B00027FC01214FF43F4001F022FC0F214FF46F
:1048C000334001F01DFC0F214BF2013001F018FCC8
:1048D0000F214BF2023001F013FC34214FF4394028
:1048E00001F00EFC34214BF6011001F009FC3421DB
:1048F0004BF6021001F004FC08214FF4354001F0A2
:10490000FFFB08214BF2015001F0FAFB08214BF2AA
:10491000025001F0F5FB03214FF4424001F0F0FB9F
:1049200024214FF43A4001F0EBFB24214BF6012007
:1049300001F0E6FB24214BF6022001F0E1FB00210F
:104940004FF43C4001F0DCFB78214BF6014001F0D4
:10495000D7FB00214BF6024001F0D2FB00214FF4BF
:104960003D4001F0CDFB78214BF6015001F0C8FB32
:1049700000214BF6025001F0C3FB00214FF43E40F2
:1049800001F0BEFB64214BF6016001F0B9FB002190
:104990004FF4514001F0B4FB33214DF2011001F00E
:1049A000AFFB00214DF2021001F0AAFB34214DF2C1
:1049B000031001F0A5FB00214DF2041001F0A0FB53
:1049C0003A214DF2051001F09BFB00214DF206103B
:1049D00001F096FB4A214DF2071001F091FB0021F6
:1049E0004DF2081001F08CFB5C214DF2091001F032
:1049F00087FB00214DF20A1001F082FB81214DF26C
:104A00000B1001F07DFB00214DF20C1001F078FB42
:104A1000A6214DF20D1001F073FB00214DF20E1096
:104A200001F06EFBE5214DF20F1001F069FB012151
:104A30004DF2101001F064FB13214DF2111001F042
:104A40005FFB01214DF2121001F05AFB54214DF28F
:104A5000131001F055FB01214DF2141001F050FB31
:104A600082214DF2151001F04BFB01214DF2161081
:104A700001F046FBCA214DF2171001F041FB022163
:104A80004DF2181001F03CFB00214DF2191001F01D
:104A900037FB02214DF21A1001F032FB01214DF2D9
:104AA0001B1001F02DFB02214DF21C1001F028FB20
:104AB00034214DF21D1001F023FB02214DF21E1096
:104AC00001F01EFB67214DF21F1001F019FB0221BE
:104AD0004DF2201001F014FB84214DF2211001F061
:104AE0000FFB02214DF2221001F00AFBA4214DF22E
:104AF000231001F005FB02214DF2241001F000FB10
:104B0000B7214DF2251001F0FBFA02214DF22610DB
:104B100001F0F6FACF214DF2271001F0F1FA02214F
:104B20004DF2281001F0ECFADE214DF2291001F0CF
:104B3000E7FA02214DF22A1001F0E2FAF2214DF2D9
:104B40002B1001F0DDFA02214DF22C1001F0D8FA01
:104B5000FE214DF22D1001F0D3FA03214DF22E105B
:104B600001F0CEFA10214DF22F1001F0C9FA032105
:104B70004DF2301001F0C4FA33214DF2311001F042
:104B8000BFFA03214DF2321001F0BAFA6D214DF255
:104B9000331001F0B5FA00214FF4524001F0B0FAA1
:104BA00033214DF2012001F0ABFA00214DF2022039
:104BB00001F0A6FA34214DF2032001F0A1FA002100
:104BC0004DF2042001F09CFA3A214DF2052001F04B
:104BD00097FA00214DF2062001F092FA4A214DF297
:104BE000072001F08DFA00214DF2082001F088FA2B
:104BF0005C214DF2092001F083FA00214DF20A20D8
:104C000001F07EFA81214DF20B2001F079FA0021AA
:104C10004DF20C2001F074FAA6214DF20D2001F0A6
:104C20006FFA00214DF20E2001F06AFAE5214DF2F3
:104C30000F2001F065FA01214DF2102001F060FA19
:104C400013214DF2112001F05BFA01214DF21220E7
:104C500001F056FA54214DF2132001F051FA0121CE
:104C60004DF2142001F04CFA82214DF2152001F092
:104C700047FA01214DF2162001F042FACA214DF205
:104C8000172001F03DFA02214DF2182001F038FA08
:104C900000214DF2192001F033FA02214DF21A20C1
:104CA00001F02EFA01214DF21B2001F029FA022118
:104CB0004DF21C2001F024FA34214DF21D2001F0A8
:104CC0001FFA02214DF21E2001F01AFA67214DF25F
:104CD0001F2001F015FA02214DF2202001F010FAF8
:104CE00084214DF2212001F00BFA02214DF2222005
:104CF00001F006FAA4214DF2232001F001FA02216D
:104D00004DF2242001F0FCF9B7214DF2252001F0ED
:104D1000F7F902214DF2262001F0F2F9CF214DF2F0
:104D2000272001F0EDF902214DF2282001F0E8F9E9
:104D3000DE214DF2292001F0E3F902214DF22A2073
:104D400001F0DEF9F2214DF22B2001F0D9F9022118
:104D50004DF22C2001F0D4F9FE214DF22D2001F06E
:104D6000CFF903214DF22E2001F0CAF910214DF2A6
:104D70002F2001F0C5F903214DF2302001F0C0F9D8
:104D800033214DF2312001F0BBF903214DF23220E5
:104D900001F0B6F96D214DF2332001F0B1F9002197
:104DA0004FF4534001F0ACF933214DF2013001F0E2
:104DB000A7F900214DF2023001F0A2F934214DF2A1
:104DC000033001F09DF900214DF2043001F098F913
:104DD0003A214DF2053001F093F900214DF20630F1
:104DE00001F08EF94A214DF2073001F089F90021D6
:104DF0004DF2083001F084F95C214DF2093001F0E8
:104E00007FF900214DF20A3001F07AF981214DF24B
:104E10000B3001F075F900214DF20C3001F070F902
:104E2000A6214DF20D3001F06BF900214DF20E304C
:104E300001F066F9E5214DF20F3001F061F9012131
:104E40004DF2103001F05CF913214DF2113001F0F8
:104E500057F901214DF2123001F052F954214DF26F
:104E6000133001F04DF901214DF2143001F048F9F1
:104E700082214DF2153001F043F901214DF2163037
:104E800001F03EF9CA214DF2173001F039F9022143
:104E90004DF2183001F034F900214DF2193001F0D3
:104EA0002FF902214DF21A3001F02AF901214DF2B9
:104EB0001B3001F025F902214DF21C3001F020F9E0
:104EC00034214DF21D3001F01BF902214DF21E304C
:104ED00001F016F967214DF21F3001F011F902219E
:104EE0004DF2203001F00CF984214DF2213001F017
:104EF00007F902214DF2223001F002F9A4214DF20E
:104F0000233001F0FDF802214DF2243001F0F8F8D1
:104F1000B7214DF2253001F0F3F802214DF2263091
:104F200001F0EEF8CF214DF2273001F0E9F802212F
:104F30004DF2283001F0E4F8DE214DF2293001F085
:104F4000DFF802214DF22A3001F0DAF8F2214DF2B9
:104F50002B3001F0D5F802214DF22C3001F0D0F8C1
:104F6000FE214DF22D3001F0CBF803214DF22E3011
:104F700001F0C6F810214DF22F3001F0C1F80321E5
:104F80004DF2303001F0BCF833214DF2313001F0F8
:104F9000B7F803214DF2323001F0B2F86D214DF235
:104FA000333001F0ADF800214FF4544001F0A8F87F
:104FB00033214DF2014001F0A3F800214DF20240EF
:104FC00001F09EF834214DF2034001F099F80021E0
:104FD0004DF2044001F094F83A214DF2054001F001
:104FE0008FF800214DF2064001F08AF84A214DF277
:104FF000074001F085F800214DF2084001F080F8EB
:105000005C214DF2094001F07BF800214DF20A408D
:1050100001F076F881214DF20B4001F071F800218A
:105020004DF20C4001F06CF8A6214DF20D4001F05C
:1050300067F800214DF20E4001F062F8E5214DF2D3
:105040000F4001F05DF801214DF2104001F058F8D9
:1050500013214DF2114001F053F801214DF212409D
:1050600001F04EF854214DF2134001F049F80121AE
:105070004DF2144001F044F882214DF2154001F048
:105080003FF801214DF2164001F03AF8CA214DF2E5
:10509000174001F035F802214DF2184001F030F8C8
:1050A00000214DF2194001F02BF802214DF21A4077
:1050B00001F026F801214DF21B4001F021F80221F8
:1050C0004DF21C4001F01CF834214DF21D4001F05E
:1050D00017F802214DF21E4001F012F867214DF23F
:1050E0001F4001F00DF802214DF2204001F008F8B8
:1050F00084214DF2214001F003F802214DF22240BB
:1051000000F0FEFFA4214DF2234000F0F9FF022140
:105110004DF2244000F0F4FFB7214DF2254000F09D
:10512000EFFF02214DF2264000F0EAFFCF214DF2C1
:10513000274000F0E5FF02214DF2284000F0E0FF9B
:10514000DE214DF2294000F0DBFF02214DF22A4022
:1051500000F0D6FFF2214DF22B4000F0D1FF0221EA
:105160004DF22C4000F0CCFFFE214DF22D4000F01E
:10517000C7FF03214DF22E4000F0C2FF10214DF277
:105180002F4000F0BDFF03214DF2304000F0B8FF8A
:1051900033214DF2314000F0B3FF03214DF2324094
:1051A00000F0AEFF6D214DF2334000F0A9FF002169
:1051B0004FF4554000F0A4FF33214DF2015000F0B0
:1051C0009FFF00214DF2025000F09AFF34214DF272
:1051D000035000F095FF00214DF2045000F090FFC5
:1051E0003A214DF2055000F08BFF00214DF20650A0
:1051F00000F086FF4A214DF2075000F081FF0021A8
:105200004DF2085000F07CFF5C214DF2095000F097
:1052100077FF00214DF20A5000F072FF81214DF21C
:105220000B5000F06DFF00214DF20C5000F068FFB4
:10523000A6214DF20D5000F063FF00214DF20E50FB
:1052400000F05EFFE5214DF20F5000F059FF012103
:105250004DF2105000F054FF13214DF2115000F0A8
:105260004FFF01214DF2125000F04AFF54214DF240
:10527000135000F045FF01214DF2145000F040FFA3
:1052800082214DF2155000F03BFF01214DF21650E6
:1052900000F036FFCA214DF2175000F031FF022115
:1052A0004DF2185000F02CFF00214DF2195000F083
:1052B00027FF02214DF21A5000F022FF01214DF28A
:1052C0001B5000F01DFF02214DF21C5000F018FF92
:1052D00034214DF21D5000F013FF02214DF21E50FB
:1052E00000F00EFF67214DF21F5000F009FF022170
:1052F0004DF2205000F004FF84214DF2215000F0C7
:10530000FFFE02214DF2225000F0FAFEA4214DF2E0
:10531000235000F0F5FE02214DF2245000F0F0FE83
:10532000B7214DF2255000F0EBFE02214DF2265040
:1053300000F0E6FECF214DF2275000F0E1FE022101
:105340004DF2285000F0DCFEDE214DF2295000F035
:10535000D7FE02214DF22A5000F0D2FEF2214DF28A
:105360002B5000F0CDFE02214DF22C5000F0C8FE73
:10537000FE214DF22D5000F0C3FE03214DF22E50C0
:1053800000F0BEFE10214DF22F5000F0B9FE0321B7
:105390004DF2305000F0B4FE33214DF2315000F0A8
:1053A000AFFE03214DF2325000F0AAFE6D214DF206
:1053B000335000F0A5FE00214FF4564000F0A0FE4F
:1053C00033214DF2016000F09BFE00214DF202609E
:1053D00000F096FE34214DF2036000F091FE0021B2
:1053E0004DF2046000F08CFE3A214DF2056000F0B1
:1053F00087FE00214DF2066000F082FE4A214DF248
:10540000076000F07DFE00214DF2086000F078FE9C
:105410005C214DF2096000F073FE00214DF20A603C
:1054200000F06EFE81214DF20B6000F069FE00215C
:105430004DF20C6000F064FEA6214DF20D6000F00C
:105440005FFE00214DF20E6000F05AFEE5214DF2A4
:105450000F6000F055FE01214DF2106000F050FE8B
:1054600013214DF2116000F04BFE01214DF212604C
:1054700000F046FE54214DF2136000F041FE012180
:105480004DF2146000F03CFE82214DF2156000F0F8
:1054900037FE01214DF2166000F032FECA214DF2B6
:1054A000176000F02DFE02214DF2186000F028FE7A
:1054B00000214DF2196000F023FE02214DF21A6026
:1054C00000F01EFE01214DF21B6000F019FE0221CA
:1054D0004DF21C6000F014FE34214DF21D6000F00E
:1054E0000FFE02214DF21E6000F00AFE67214DF210
:1054F0001F6000F005FE02214DF2206000F000FE6A
:1055000084214DF2216000F0FBFD02214DF222606A
:1055100000F0F6FDA4214DF2236000F0F1FD022120
:105520004DF2246000F0ECFDB7214DF2256000F053
:10553000E7FD02214DF2266000F0E2FDCF214DF2A1
:10554000276000F0DDFD02214DF2286000F0D8FD5B
:10555000DE214DF2296000F0D3FD02214DF22A60D8
:1055600000F0CEFDF2214DF22B6000F0C9FD0221CA
:105570004DF22C6000F0C4FDFE214DF22D6000F0D4
:10558000BFFD03214DF22E6000F0BAFD10214DF257
:105590002F6000F0B5FD03214DF2306000F0B0FD4A
:1055A00033214DF2316000F0ABFD03214DF232604A
:1055B00000F0A6FD6D214DF2336000F0A1FD5521F4
:1055C000184600F09DFDAA21204600F099FD5221C9
:1055D000284600F095FD0821304600F091FD00219D
:1055E000384600F08DFDCC21484600F089FD0021B1
:1055F000504600F085FD0521404600F081FD7021F8
:10560000584600F07DFD70214BF2017000F078FDEE
:1056100001214FF4384000F073FD03214BF60100E7
:1056200000F06EFD03214BF6020000F069FD03213E
:105630004BF6030000F064FD02214FF43C4000F003
:105640005FFD00214BF6014000F05AFD00214BF6B2
:10565000024000F055FDD0214FF4494000F050FDCC
:1056600002214CF6011000F04BFD50214CF60210C7
:1056700000F046FD50214CF6031000F041FD502192
:105680004CF6041000F03CFD00214FF4545000F0A3
:1056900037FD55214FF4685000F032FD4FF488502B
:1056A00000F018FD7820FDF767FFBDE8F05F4FF4CC
:1056B000245000F00FBD10B5E22000F00BFD1D20BE
:1056C00000F0FCFC022000F0F9FC042000F0F6FCE5
:1056D0006420FDF751FFE02000F0FCFC012000F009
:1056E000EDFC0A20FDF746FFE02000F0F3FC03206C
:1056F00000F0E4FC0C20FDF73DFF012000F0EAFC87
:105700000A20FDF737FFE62000F0E4FC2F2000F030
:10571000D5FCFF2000F0D2FCFF2000F0CFFCB02031
:1057200000F0D8FC202000F0C9FC002000F0C6FCEE
:10573000032000F0C3FC40F21F3000F0BFFC01204A
:1057400000F0BCFC40F2DF1000F0B8FC002000F0DC
:10575000B5FCB42000F0BEFC042000F0AFFC40F229
:105760001F4000F0ABFC002000F0A8FC2E2000F051
:10577000A5FC002000F0A2FC002000F09FFC00200F
:1057800000F09CFC002000F099FCB62000F0A2FC88
:10579000022000F093FC4FF4037000F08FFC002017
:1057A00000F08CFC172000F089FC152000F086FC2E
:1057B000002000F083FC002000F080FCF02000F0CE
:1057C00089FC032000F07AFC292000F083FCD02023
:1057D00000F080FC002000F071FCBE2000F07AFC9C
:1057E000052000F06BFCFE2000F068FC012000F0BA
:1057F00065FC002000F062FC002000F05FFC00204F
:1058000000F05CFCB82000F065FC032000F056FCC2
:10581000012000F053FCBA2000F05CFCBDE8104011
:10582000012000F04BBC10B5112000F053FC782093
:10583000FDF7A0FE362000F04DFC002000F03EFCFD
:105840003A2000F047FC052000F038FCB22000F0C0
:1058500041FC0C2000F032FC0C2000F02FFC00205A
:1058600000F02CFC332000F029FC332000F026FC53
:10587000B72000F02FFC352000F020FCBB2000F00A
:1058800029FC322000F01AFCC02000F023FC0C2080
:1058900000F014FCC22000F01DFC012000F00EFC02
:1058A000C32000F017FC102000F008FCC42000F01A
:1058B00011FC202000F002FCC62000F00BFC0F20A1
:1058C00000F0FCFBD02000F005FCA42000F0F6FB6B
:1058D000A12000F0F3FBE02000F0FCFBD02000F062
:1058E000EDFB002000F0EAFB022000F0E7FB0720C0
:1058F00000F0E4FB0A2000F0E1FB282000F0DEFBD2
:10590000322000F0DBFB442000F0D8FB422000F006
:10591000D5FB062000F0D2FB0E2000F0CFFB1220BA
:1059200000F0CCFB142000F0C9FB172000F0C6FBF0
:10593000E12000F0CFFBD02000F0C0FB002000F001
:10594000BDFB022000F0BAFB072000F0B7FB0A20E5
:1059500000F0B4FB282000F0B1FB312000F0AEFBDA
:10596000542000F0ABFB472000F0A8FB0E2000F015
:10597000A5FB1C2000F0A2FB172000F09FFB1B20C2
:1059800000F09CFB1E2000F099FB2A2000F0A2FBF7
:10599000002000F093FB002000F090FB002000F0BE
:1059A0008DFBEF2000F08AFB2B2000F093FB002002
:1059B00000F084FB002000F081FB012000F07EFB62
:1059C0003F2000F07BFBBDE81040292000F082BBA7
:1059D0002DE9F04FB04897B00024016841F0400134
:1059E0000160016801F040010C91016841F008017B
:1059F0000160016801F008010C91016841F00801A3
:105A00000160016801F008010C91016841F040015A
:105A10000160016801F040010C91016841F0020150
:105A200001600068012500F002000C904FF48050E6
:105A300000900220CDE9010503900C2004906946F6
:105A40009648FBF7B9FA2020009069469448FBF786
:105A5000B3FA1026694692480096FBF7ADFA280380
:105A6000009069468F48FBF7A7FAE803CDE90005E7
:105A700069468D48FBF7A0FA8C4D4FF0204029462F
:105A800028608B48486006208860084605AAC460E4
:105A900046618461C4614462300288620846C4621F
:105AA000B002086308460EA9446384630F20CDE961
:105AB0000E043C201090149408940920CDE90504AC
:105AC00007900B942846FBF7C1FE3220FDF752FDEC
:105AD000D32000F0FFFA00F0EDF805F15004A080AB
